:020000040800F2
:10000000D817002005010008AD220008652000086F
:10001000A9220008EB010008C54F000800000000FD
:10002000000000000000000000000000BD260008E5
:100030005D0300080000000091260008BF260008AC
:100040001F0100081F0100081F0100081F01000810
:100050001F0100081F0100081F0100081F01000800
:100060001F0100081F0100081F0100081F010008F0
:100070001F0100081F0100081F0100081F010008E0
:100080001F0100081F0100081F0100081F010008D0
:100090000D4F00081F0100081F0100081F01000884
:1000A0001F0100081F0100081F0100081F010008B0
:1000B0001F0100081F0100081F0100081F010008A0
:1000C0001F0100081F0100081F0100081F01000890
:1000D0001F0100081F0100081F0100081F01000880
:1000E0001F0100081F0100081F010008DFF810D0E1
:1000F00000F03EF80048004721500008AFF30080B0
:10010000D81700200648804706480047FEE7FEE76C
:10011000FEE7FEE7FEE7FEE7FEE7FEE7FEE7FEE7B7
:1001200049270008ED00000840EA01039B0703D0BF
:1001300009E008C9121F08C0042AFAD203E011F826
:10014000013B00F8013B521EF9D27047D2B201E0E8
:1001500000F8012B491EFBD270470022F6E710B5CC
:1001600013460A4604461946FFF7F0FF204610BD25
:10017000064C074D06E0E06840F0010394E80700F4
:1001800098471034AC42F6D3FFF7B4FF8450000810
:10019000A450000870B58C1810F8015B15F0070327
:1001A00001D110F8013B2A1106D110F8012B03E010
:1001B00010F8016B01F8016B5B1EF9D12B0705D418
:1001C0000023521E0DD401F8013BFAE710F8013B61
:1001D000CB1A921C03E013F8015B01F8015B521E7D
:1001E000F9D5A142D8D3002070BD00BFFEE7034679
:1001F000042B15D007DC7BB1012B0ED0022B0DD0C8
:10020000032B12D10BE0202B0BD0212B0AD0222B59
:1002100009D0232B09D107E008E007E006E005E05C
:1002200004E003E002E001E000E000BF00BF0020C6
:10023000704700207047000010B5002204490548AF
:1002400002F0CBFC0449034802F0C0FC002010BDC2
:10025000E00A002034020020F806002070B50546B0
:100260000E46002448E02A48007840B10A2807D109
:10027000285D2749087001202649087031E030E0E8
:1002800024480078F0B1601C3168814212D9285CA2
:10029000295D40EA01211E480078401E1E4A52F89E
:1002A0002000016001214E2000F03CF80020184998
:1002B000087015E0285D0002184908600020154903
:1002C00008700DE0285D1549096808431049097850
:1002D000491E114A52F82110086000200C4908708C
:1002E00000BF00BF285D732805D10A2008490870A7
:1002F000012008490870641C3068A042B3D8294620
:10030000074802F063FC064802F03CFC002070BD88
:10031000740000207C000020600000207800002095
:10032000340200202DE9F04104460D4600260A481B
:10033000D0F8B872D7F8140210B10120BDE8F081EE
:100340002A462146044802F048FC034802F0C9FC52
:1003500006463046F2E7000034020020704770473E
:1003600070B50A480468001D0568001D066834441D
:1003700054B108220649204601F076FE04220449C1
:100380001031284601F070FE70BD0000E8F7FF1F35
:10039000460000202DE9F8470346002294466EE10E
:1003A0004FF0010808FA02F4D1F8008008EA0400CE
:1003B000A0427DD1DFF8DCA2D1F80480A8EB0A09C5
:1003C000D0453AD014DCB8F1030F50D009DCB8F1B5
:1003D000000F31D0B8F1010F1CD0B8F1020F49D194
:1003E00020E0B8F1110F18D0B8F1120F42D11EE081
:1003F000B9F5881F25D006DCB9F5803F20D0B9F5C6
:10040000801F37D11AE0B9F5001F18D0B9F5041FC5
:1004100030D117E0D1F80CC02DE0D1F80C8008F1F4
:10042000040C28E0D1F80C8008F1080C23E0D1F886
:100430000C8008F10C0C1EE000BF00BF00BF00BF25
:1004400000BF00BFD1F80880B8F1000F02D14FF013
:10045000040C0BE0D1F80880B8F1010F03D14FF084
:10046000080C1C6102E04FF0080C5C6103E04FF0E7
:10047000000C00E000BF00BFFF2801D8984601E053
:1004800003F104084646FF2802D84FEA820803E039
:10049000A2F108084FEA88084746D6F800804FF0D6
:1004A0000F0909FA07F928EA09080CFA07F900E028
:1004B00088E048EA0908C6F80080D1F8048008F00E
:1004C0008058B8F1805F7DD100BFDFF8CC81D8F8CB
:1004D000188048F00108DFF8C091C9F81880C846B4
:1004E000D8F8188008F00108CDF8008000BF00BFE0
:1004F0004FEAB9384FEA920958F829504FEA827802
:100500004FEA18794FF00F0808FA09F825EA0805AC
:10051000DFF88881434502D14FF0000816E0DFF88C
:100520008081434502D14FF001080FE0DFF874816C
:10053000434502D14FF0020808E0DFF86C814345E3
:1005400002D14FF0030801E04FF004084FEA82792E
:100550004FEA197908FA09F848EA0505DFF84C81ED
:100560004FEA920948F82950D1F8048008F48038FD
:10057000B8F5803F0AD1DFF83881D8F8008048EA22
:100580000008DFF82C91C9F8008009E0DFF820812D
:10059000D8F8008028EA0008DFF81491C9F8008034
:1005A000D1F8048008F40038B8F5003F10D1DFF826
:1005B000008108F10408D8F8008048EA0008DFF854
:1005C000F09000E05AE009F10409C9F800800DE05C
:1005D000DFF8DC8008F10408D8F8008028EA000879
:1005E000DFF8CC9009F10409C9F80080D1F8048043
:1005F00008F48018B8F5801F0ED1DFF8B48008F138
:100600000808D8F8008048EA0008DFF8A49009F14B
:100610000809C9F800800DE0DFF8948008F10808A7
:10062000D8F8008028EA0008DFF8849009F108096A
:10063000C9F80080D1F8048008F40018B8F5001F4C
:100640000ED1DFF86C8008F10C08D8F8008048EA79
:100650000008DFF85C9009F10C09C9F800800DE092
:10066000DFF84C8008F10C08D8F8008028EA000870
:10067000DFF83C9009F10C09C9F80080521CD1F850
:10068000008028FA02F8B8F1000F7FF489AEBDE8C7
:10069000F88700000000111000100240000801401F
:1006A000000C01400010014000140140080001400E
:1006B000000401400AB1016101E00B0403617047CD
:1006C00001480068704700000000002003480068EF
:1006D0000349097808440149086070470000002078
:1006E0000800002010B50848006840F010000649D6
:1006F0000860032000F0A8F8002000F007F800F0E0
:100700002BF8002010BD00000020024070B5044608
:100710000E4800784FF47A71B1FBF0F00C4909688B
:10072000B1FBF0F5284601F0B3FA08B1012070BD25
:10073000102C07D200222146501E00F047F8054831
:10074000046001E00120F2E70020F0E7080000204B
:100750000C0000200400002008B500BF114880698B
:1007600040F001000F4988610846806900F00100EF
:10077000009000BF00BF00BF0846C06940F0805035
:10078000C8610846C06900F08050009000BF00BFFB
:1007900000BF0549486820F0E06040F00070486004
:1007A00000BF08BD0010024000000140014608469D
:1007B000002809DB00F01F0301229A4043099B0037
:1007C00003F1E023C3F8002100BF70472DE9F05F7B
:1007D00080460D461646002704F0F6FB07463946CC
:1007E0002A46334601F00700C0F1070ABAF1040FA8
:1007F00002D94FF0040A01E0C0F1070AD14600F126
:10080000040ABAF1070F02D24FF0000A01E0A0F18A
:10081000030AD4464FF0010A0AFA09FAAAF1010ABA
:100820000AEA020A0AFA0CFA4FF0010B0BFA0CFB67
:10083000ABF1010B0BEA030B4AEA0B0421464046DD
:1008400004F0CAFBBDE8F09F00BF00F00702064BB2
:1008500019684FF6FF031940044B0B4343EA02218A
:10086000014B196000BF70470CED00E00000FA0575
:1008700070B505460C4604F08000802808D104F0CD
:10088000070000EB800605F1280000EBC60105E03B
:1008900004EB840605F5B47000EBC6011AB900201C
:1008A0000873CB8004E0012008730B81180C488189
:1008B000002070BD704770B504460D4605EB8503FA
:1008C00004F1280101EBC3014A692946D4F8E80282
:1008D00002F014FD70BD70B504460D4605EB8503AE
:1008E00004F5B47101EBC3014A692946D4F8E80262
:1008F00002F084FD70BD70B504460E4606F080001F
:1009000080280AD106F0070000EB800104F12800DE
:1009100000EBC1050120687009E006F0070000EB5C
:10092000800104F5B47000EBC1050020687006F08A
:100930000700287000BF94F8A802012801D1022006
:1009400070BD012084F8A80200BF2946206803F08A
:10095000DDFB00BF002084F8A80200BF00BFEFE766
:1009600070B504460E4606F00F006168884201D952
:10097000012070BD06F0800080280AD106F0070033
:1009800000EB800104F1280000EBC1050120687034
:1009900009E006F0070000EB800104F5B47000EBFD
:1009A000C105002068700020A87006F007002870BC
:1009B00000BF94F8A802012801D10220D9E7012044
:1009C00084F8A80200BF2946206803F0FBFC00BFA2
:1009D000002084F8A80200BF00BFCAE72DE9F0415B
:1009E00005460C46174607F48040002850D028687A
:1009F000B0F85010207801EBC000801C296801F588
:100A0000806131F81000C0F30906A069B04203D339
:100A1000A069801BA06101E00020A061A069A8B9C5
:100A200000BF22785200296831F812104BF68F72FD
:100A300001EA020080F4005040F4004141F08001DE
:100A400023785B002A6822F8131000BF07F04000EB
:100A5000A8B100BF00BF22785200296831F81210F7
:100A600048F68F7201EA020040F4004141F0C001F3
:100A700023785B002A6822F8131000BF00BF002E05
:100A800055D0228961693346286804F04BFA4EE05C
:100A90002868B0F85010207801EBC000801D29684C
:100AA00001F5806131F81000C0F30906A069B04279
:100AB00003D3A069801BA06101E00020A061A069B0
:100AC000A8B900BF22785200296831F812104BF6FD
:100AD0008F7201EA020080F4005040F4004141F0BE
:100AE000800123785B002A6822F8131000BF07F00A
:100AF0004000A8B900BF00BF22785200296831F831
:100B0000121048F68F7201EA020040F4004141F0F1
:100B1000C00123785B002A6822F8131000BF00BFD1
:100B20002EB1628961693346286804F0FBF93046CA
:100B3000BDE8F0812DE9F04705460C46904608F0E7
:100B4000400000287ED02868B0F85010207801EBD3
:100B5000C000801C296801F5806131F81000C0F3E5
:100B60000907A069B84203D9A069C01BA06101E0D0
:100B70000020A061A069E8B921782846FFF79BFE14
:100B800008F48040002814D000BF00BF2278520033
:100B9000296831F8121048F68F7201EA020040F419
:100BA000004141F4814123785B002A6822F8131048
:100BB00000BF5FE108F48040A8B100BF00BF227809
:100BC0005200296831F8121048F68F7201EA0200CB
:100BD00040F4004141F4814123785B002A6822F807
:100BE000131000BF00BF94F824000128E1D1606910
:100BF00038446061E0693844E0612169206A8842D4
:100C000004D32669206A801B20620BE0206A20B989
:100C10003E46002084F8240004E0002084F82400EC
:100C2000266A206200BF6078C8BB00BF2A682968B6
:100C3000B1F850100A442178022303EBC10102F5F8
:100C4000806300E047E003EB4101084600BF56B96E
:100C5000038848F2FF3C03EA0C030380038843F453
:100C60000043038019E03E2E0BD800BF710806F048
:100C7000010303B1491C4FF6FF7303EA812303808C
:100C80000BE000BF710906F01F0303B9491E4FF4C2
:100C9000004343EA8123038000BF00BF13E0FFE766
:100CA000607801280FD100BF28682A68B2F8502068
:100CB00010442278022303EBC20200F5806303EBA9
:100CC00042010E8000BF00BFB3B22289616928686B
:100CD00004F057F9CEE02868B0F85010207801EB06
:100CE000C000801D296801F5806131F81000C0F353
:100CF0000907A069B84203D3A069C01BA06101E045
:100D00000020A061A069E8B921782846FFF7D3FD4B
:100D100008F480400028DDD100BF00BF22785200D7
:100D2000296831F8121048F68F7201EA020040F487
:100D3000004141F4814123785B002A6822F81310B6
:100D400000BF97E008F48040A8B900BF00BF227838
:100D50005200296831F8121048F68F7201EA020039
:100D600040F4004141F4814123785B002A6822F875
:100D7000131000BF00BF94F8240001287AD16069E5
:100D800038446061E0693844E0612169206A884242
:100D900004D32669206A801B20620BE0206A20B9F8
:100DA0003E46002084F8240004E0266A00202062E9
:100DB00084F8240000BF2A68607890BB00BFD5F893
:100DC00000C02968B1F850108C4421784FF0060912
:100DD00009EBC1010CF5806909EB4101084600BF30
:100DE00076B9B0F8009048F2FF3A09EA0A09A0F88B
:100DF0000090B0F8009049F40049A0F8009020E07D
:100E00003E2E0FD800BF710806F00109B9F1000F9E
:100E100000D0491C4FF6FF7909EA8129A0F800901B
:100E20000FE010E000BF710906F01F09B9F1000FD3
:100E300000D1491E4FF4004949EA8129A0F80090E9
:100E400000BF00BF0FE0607801280CD12868B0F81F
:100E5000500002442078062101EBC00002F58061B9
:100E600001EB40031E8000BFB3B26289616928684C
:100E700004F087F800BF22785200296831F8121078
:100E800048F6BF7201EA020080F0100080F02000F6
:100E900040F4004141F0800123785B002A6822F889
:100EA000131000BF0020BDE8F087024601F00700E4
:100EB00000EB800302F5B47000EBC300C06970471B
:100EC0002DE9F04705460E4690461F464FF00009B3
:100ED00006F0800080280AD106F0070000EB8001B0
:100EE00005F1280000EBC1040120607009E006F064
:100EF000070000EB800105F5B47000EBC104002091
:100F0000607006F007002070C4F81080E770607809
:100F100008B12078E081022F01D10020207100BFAC
:100F200095F8A802012802D10220BDE8F08701202F
:100F300085F8A80200BF2146286802F0BDFE00BF68
:100F4000002085F8A80200BF4846EEE72DE9F041F1
:100F500005460E461746984606F0070000EB80014E
:100F600005F5B47000EBC1046761C4F81880002077
:100F7000E061607006F00700207006F0070020B9FD
:100F80002146286803F0B9FA03E02146286803F0F7
:100F9000B4FA0020BDE8F08170B504460D4605F0B6
:100FA00007006168884201D9012070BD05F080000A
:100FB00080280AD105F0070000EB800104F1280029
:100FC00000EBC1060120707007E005EB850104F518
:100FD000B47000EBC106002070700120B07005F005
:100FE0000700307000BF94F8A802012801D1022048
:100FF000DBE7012084F8A80200BF3146206803F037
:101000004EFA05F0070020B904F52C71206803F0B2
:10101000D6F900BF002084F8A80200BF00BFC4E7D3
:101020002DE9F04105460E4690461F4606F00700A2
:1010300000EB800105F1280000EBC104C4F8148026
:10104000A761012084F8240027620020E0610120CC
:10105000607006F00700207006F0070020B92146F6
:10106000286803F04AFA03E02146286803F045FAAD
:101070000020BDE8F0817FB50446206803F04EFFF4
:1010800000F40040B0F5004F02D1204601F00FF906
:10109000206803F043FF00F48060B0F5806F0FD14B
:1010A0002068B0F844004FF6FF3108402168A1F8ED
:1010B0004400204600F09EF90021204600F0BAF9D5
:1010C000206803F02BFF00F48040B0F5804F08D17A
:1010D0002068B0F844004BF6FF7108402168A1F881
:1010E0004400206803F01AFF00F40050B0F5005FE0
:1010F00008D12068B0F844004DF6FF71084021681F
:10110000A1F84400206803F009FF00F48050B0F516
:10111000805F1DD12068B0F840004FF6FB71084099
:101120002168A1F840002068B0F840004FF6F77140
:1011300008402168A1F84000204600F06DF92068C1
:10114000B0F844004EF6FF7108402168A1F8440051
:10115000206803F0E3FE00F40060B0F5006F55D1A5
:10116000002507E06900206830F811002DF815000F
:10117000681CC5B2082DF5D32068B0F8400040F0D7
:1011800001002168A1F840002068B0F840004FF647
:10119000FE7108402168A1F8400000BF2068B0F847
:1011A000440000F480600028F8D02068B0F84400C3
:1011B0004FF6FF3108402168A1F84400002507E000
:1011C0003DF815006A00216821F81200681CC5B2BC
:1011D000082DF5D32068B0F8400040F008002168E1
:1011E000A1F840002068B0F844004FF2FF710840B9
:1011F0002168A1F844002068B0F8400040F00400E5
:101200002168A1F84000204600F056F9206803F05C
:1012100085FE00F40070B0F5007F0BD12068B0F8B7
:1012200044004FF6FF5108402168A1F844002046D1
:1012300000F0F9F8206803F071FE00F48070B0F55A
:10124000807F08D12068B0F844004FF6FF61084065
:101250002168A1F844007FBD30B585B0044614B9BB
:10126000012005B030BD94F8A90228B9002084F807
:10127000A802204600F09CF8032084F8A902206808
:1012800003F093F8142204F110016846FEF74CFFB6
:1012900094E80F0002F036FF20B1022084F8A90282
:1012A0000120DEE70021206803F061FE002531E027
:1012B000012105EB850204F1280000EBC20041701A
:1012C00005EB850104F1280000F8315005EB85019C
:1012D00000EBC100C581002105EB850204F1280067
:1012E00000EBC200C17005EB850204F1280000EBA1
:1012F000C200016105EB850204F1280000EBC20089
:10130000416105EB850204F1280000EBC200816118
:10131000681CC5B26068A842CAD800252AE000212E
:1013200005EB850204F5B47000EBC200417005EBDB
:10133000850104F5B47000F83150002105EB8502F9
:1013400000EBC200C17005EB850204F5B47000EB40
:10135000C200016105EB850204F5B47000EBC20028
:10136000416105EB850204F5B47000EBC2008161B8
:10137000681CC5B26068A842D1D8142204F11001DB
:101380006846FEF7D1FE94E80F0003F003F820B1A1
:10139000022084F8A902012063E7002084F82400D9
:1013A000012084F8A902206802F0F1FF002058E72C
:1013B00038B504460D492068884215D100BF0C4855
:1013C000C06940F400000A49C8610846C06900F4D9
:1013D0000000009000BF00BF002211461420FFF75C
:1013E000F5F91420FFF7E2F938BD0000005C004079
:1013F0000010024070B504460125A068022801D003
:10140000FEF7ADFF2946D4F8E80202F02BF9D4F834
:10141000E80202F0DDF870BD10B50446D4F8E80229
:1014200002F004F910BD10B50446D4F8E80202F049
:1014300008F910BD70B504460D4600BF94F8A80227
:10144000012801D1022070BD012084F8A80200BF4C
:1014500084F824502946206803F08CFD00BF00204A
:1014600084F8A80200BF00BFEDE710B5044604F5FC
:101470002C71D4F8E80202F00CF910BD10B5044646
:1014800000BF94F8A802012801D1022010BD01205C
:1014900084F8A80200BF206803F02EFD0121204639
:1014A000FFF708FA206802F06FFF00BF002084F801
:1014B000A80200BF00BFE9E710B50446D4F8E8026F
:1014C00002F040F9A06928B10348006840F0060026
:1014D0000149086010BD000010ED00E0F8B50446B9
:1014E00000260025207800F0010000286BD000279E
:1014F0004348C06900F0805070B900BF4048C069DF
:1015000040F080503E49C8610846C06900F08050F4
:10151000009000BF00BF01273A48006800F48070C7
:10152000B0B93848006840F4807036490860FFF769
:10153000C7F8064606E0FFF7C3F8801B642801D908
:101540000320F8BD2F48006800F480700028F2D016
:101550002B48006A00F440752DB3A08800F4407059
:10156000A84220D02648006A20F440750120264970
:101570000860002008602248056205F0010090B173
:10158000FFF79EF8064608E0FFF79AF8801B41F245
:101590008831884201D90320D3E71948006A00F056
:1015A00002000028F0D01648006A20F440706168FC
:1015B000084313490862012F04D10846C06920F08E
:1015C0008050C86100BF207800F00200022807D1D7
:1015D0000B48406820F44040A1680843084948602F
:1015E000207800F01000102807D10548406820F44A
:1015F0008000E1680843024948600020A1E700003C
:1016000000100240007000404004424270B50446A1
:101610000D460CB9012070BD5A48006800F0070063
:10162000A8420ED25748006820F0070028435549C9
:1016300008600846006800F00700A84201D00120B9
:10164000E9E7207800F0020002281DD1207800F0A0
:101650000400042805D14C48406840F4E0604A4941
:101660004860207800F00800082805D14648406806
:1016700040F46050444948604348406820F0F0001E
:10168000A168084340494860207800F0010078B321
:101690006068012806D13C48006800F4003090B929
:1016A0000120B8E76068022806D13748006800F0DA
:1016B000007040B90120AEE73348006800F0020036
:1016C00008B90120A7E73048406820F003006168AE
:1016D00008432D494860FEF7F3FF064609E0FEF790
:1016E000EFFF801B41F28831884202D9032092E744
:1016F00007E02548406800F00C006168B0EB810FFE
:10170000EDD12048006800F00700A8420ED91D481E
:10171000006820F0070028431A490860084600685E
:1017200000F00700A84201D0012074E7207800F003
:101730000400042807D11448406820F4E060E16800
:10174000084311494860207800F00800082808D1B3
:101750000D48406820F46050216940EAC1000A4900
:10176000486000F019F808494968C1F30311074AB5
:10177000515CC8400649086006480068FEF7C6FF8D
:10178000002048E700200240001002406C50000892
:101790000C00002004000020F0B585B00FF26C0CA6
:1017A0009CE8E01001A8A0E8E0101CA52D680095B9
:1017B00000210022002300240020194D696801F057
:1017C0000C05F5B1042D02D0082D19D101E0154802
:1017D00019E001ADC1F38346AC5D01F4803555B12C
:1017E0000F4D6D68C5F340451DF805200D4D65434F
:1017F000B5FBF2F302E00C4D04FB05F3184602E0E2
:1018000000BF084800BF00BF05B0F0BD02030405DB
:10181000060708090A0B0C0D0E0F1010010200003C
:101820000010024000127A0000093D00F8B504469D
:101830000CB90120F8BD207800F00100002878D014
:10184000F848406800F00C0004280CD0F5484068C7
:1018500000F00C00082811D1F248406800F48030F4
:10186000B0F5803F0AD1EF48006800F4003000284E
:101870005FD0606800285CD10120DBE700BF6068B2
:10188000B0F5803F06D1E748006840F48030E54974
:10189000086028E0606858B9E248006820F48030A9
:1018A000E04908600846006820F4802008601AE0DB
:1018B0006068B0F5A02F0BD1DA48006840F48020B2
:1018C000D84908600846006840F4803008600AE0A3
:1018D000D448006820F48030D24908600846006887
:1018E00020F48020086000BF606888B1FEF7E8FE41
:1018F000054606E0FEF7E4FE401B642801D90320FC
:1019000098E7C848006800F400300028F2D010E0E2
:10191000FEF7D6FE054606E0FEF7D2FE401B642821
:1019200001D9032086E7BF48006800F40030002892
:10193000F2D1207800F00200022857D1B94840685F
:1019400000F00C0050B1B748406800F00C000828C7
:1019500018D1B448406800F4803098B9B1480068A4
:1019600000F0020020B12069012801D0012061E7C8
:10197000AC48006820F0F800616940EAC100A9495C
:10198000086033E02069E8B10120A7490860FEF74C
:1019900097FE054606E0FEF793FE401B022801D99C
:1019A000032047E79F48006800F002000028F2D0BB
:1019B0009C48006820F0F800616940EAC10099493C
:1019C000086013E0002098490860FEF779FE05469C
:1019D00006E0FEF775FE401B022801D9032029E727
:1019E0009048006800F002000028F2D1207800F052
:1019F000080008282DD1A069B8B101208B490860E2
:101A0000FEF75EFE054606E0FEF75AFE401B022882
:101A100001D903200EE78348406A00F00200002845
:101A2000F2D0012000F036FE13E000207F4908606C
:101A3000FEF746FE054606E0FEF742FE401B022882
:101A400001D90320F6E67748406A00F0020000283A
:101A5000F2D1207800F00400042873D100277148E7
:101A6000C06900F0805070B900BF6E48C06940F096
:101A700080506C49C8610846C06900F080500090F1
:101A800000BF00BF01276A48006800F48070B0B949
:101A90006748006840F4807065490860FEF710FEF2
:101AA000054606E0FEF70CFE401B642801D9032022
:101AB000C0E65F48006800F480700028F2D000BFE4
:101AC000E068012806D15748006A40F001005549F6
:101AD000086227E0E06858B95248006A20F0010027
:101AE000504908620846006A20F00400086219E0C4
:101AF000E06805280BD14B48006A40F004004949D2
:101B000008620846006A40F0010008620AE04548A1
:101B1000006A20F00100434908620846006A20F08C
:101B20000400086200BFE068A0B1FEF7C9FD0546E9
:101B300009E0FEF7C5FD401B41F28831884202D919
:101B4000032077E622E03748006A00F00200002810
:101B5000EFD012E0FEF7B4FD054608E0FEF7B0FD59
:101B6000401B41F28831884201D9032062E62D48AA
:101B7000006A00F002000028F0D1012F05D12948A9
:101B8000C06920F080502749C86100BFE069C8B330
:101B90002448406800F00C00082860D0E069022862
:101BA00048D1002020490866FEF78AFD054606E078
:101BB000FEF786FD401B022801D903203AE61948AA
:101BC000006800F000700028F2D1206AB0F5803F74
:101BD00007D11448406820F40030A1680843114937
:101BE0004860D4E9080108430E49496821F474119A
:101BF00008430C49486001200B490866FEF760FD68
:101C0000054607E03DE0FEF75BFD401B022801D9D9
:101C100003200FE60348006800F000700028F2D0AF
:101C20002FE00000001002400000424280044242C7
:101C300000700040002014490866FEF741FD05468B
:101C400006E0FEF73DFD401B022801D90320F1E527
:101C50000E48006800F000700028F2D111E0E06941
:101C6000012800D1E6E50948466806F48031206A7B
:101C7000814204D106F47011606A814201D00120D2
:101C8000D8E50020D6E500000000424200100240E6
:101C900070B504462546681EB0F1807F01D301204F
:101CA0000FE0681E4FF0E02148610F214FF0FF3038
:101CB00003F092F900204FF0E021886107200861CD
:101CC000002070BD30B502460B4600BF92F83C00C4
:101CD000012801D1022030BD012082F83C0000BF64
:101CE000022082F83D00106844681068816824F082
:101CF00070041868044310684460104D1068A842CE
:101D00000BD01068B0F1804F07D00D4D1068A8427D
:101D100003D00C4D1068A84205D121F0800158680D
:101D2000014310688160012082F83D0000BF00205F
:101D300082F83C0000BF00BFCDE70000002C01404E
:101D4000000400400008004010B586B004460020A2
:101D500002900390049005902068B0F1804F17D155
:101D600000BF1A48806940F004001849886108469D
:101D7000806900F00400019000BF00BF0F200290B6
:101D800002200390059002A91148FEF703FB1AE018
:101D900010492068884216D100BF0C48806940F085
:101DA00004000A4988610846806900F00400019037
:101DB00000BF00BF4020029002200390059002A9BE
:101DC0000348FEF7E7FA06B010BD0000001002401D
:101DD000000801400004004070B504460D46164658
:101DE00000BF94F83C00012801D1022070BD012001
:101DF00084F83C0000BF36B1042E1BD0082E31D031
:101E00000C2E5ED145E02946206800F0EBFC2068EE
:101E1000806940F00800216888612068806920F0AE
:101E20000400216888612068806929690843216865
:101E3000886147E02946206800F004FD2068806939
:101E400040F40060216888612068806920F4806027
:101E50002168886120688069296940EA0120216839
:101E600088612FE02946206800F020FD2068C069C5
:101E700040F008002168C8612068C06920F00400B3
:101E80002168C8612068C069296908432168C86160
:101E900018E02946206800F03DFD2068C06940F444
:101EA00000602168C8612068C06920F480602168F2
:101EB000C8612068C069296940EA01202168C861B9
:101EC00000E000BF00BF00BF002084F83C0000BF5E
:101ED00000BF8BE710B504460CB9012010BD94F883
:101EE0003D0028B9002084F83C00204600F026F888
:101EF000022084F83D00211D206800F027FC01200D
:101F000084F8460000BF84F83E0001213F200155BF
:101F1000402001554120015500BF00BF012084F839
:101F2000420043200155442001554520015500BF82
:101F3000012084F83D000020D0E7000008B50168CA
:101F4000B1F1804F0DD100BF0F49C96941F00101C6
:101F50000D4AD1611146C96901F00101009100BF2C
:101F600011E00A4A016891420DD100BF0649C969D2
:101F700041F00201044AD1611146C96901F0020130
:101F8000009100BF00BF08BD0010024000040040E7
:101F900070B504460D4615B994F83E000BE0042DCB
:101FA00002D13F20005D06E0082D02D14020005DF7
:101FB00001E04120005D012801D0012070BD1DB964
:101FC000022084F83E000EE0042D03D102213F20C0
:101FD000015508E0082D03D102214020015502E0FF
:101FE00002214120015501222946206800F0E8FB2A
:101FF00019492068884201D1012000E0002028B161
:102000002068406C40F40040216848641249206810
:1020100088420BD02068B0F1804F07D00F4920686C
:10202000884203D00E49206888420CD1206880681D
:1020300000F00706062E0CD02068006840F0010072
:102040002168086005E02068006840F00100216810
:1020500008600020B2E70000002C014000040040AE
:102060000008004000BFFEE730B50B46002100BF6E
:1020700016E00A24B4EB107F05D9302404EB107469
:1020800003F8114005E0412404EB10740A3C03F806
:102090001140000100254C00641C1D554C1CE1B290
:1020A0009142E6DB30BD000000B585B00020019014
:1020B00002900390049000BF1D48806940F010001A
:1020C0001B4988610846806900F01000009000BF3D
:1020D00000BF00BF0846806940F0200088610846C4
:1020E000806900F02000009000BF00BF00BF0846DC
:1020F000806940F0040088610846806900F00400AF
:10210000009000BF00BF00224FF400510948FEF7C5
:10211000D1FA4FF40050019001200290002003906A
:102120000220049001A90348FEF734F905B000BD70
:10213000001002400010014000B589B00020079057
:1021400008901C216846FEF708F84FF080402349AC
:1021500008602F20486000212048816044F61F61FC
:10216000C160002101618161FFF7B4FE08B1FEF793
:10217000F6F800200790089007A91848FFF7A2FD7D
:1021800008B1FEF7ECF8602000900020019002906A
:102190000490002269461148FFF71EFE08B1FEF7C1
:1021A000DEF8042269460D48FFF716FE08B1FEF777
:1021B000D6F8082269460948FFF70EFE08B1FEF777
:1021C000CEF80C2269460548FFF706FE08B1FEF777
:1021D000C6F80248FFF7B8FD09B000BDA401002011
:1021E00000B589B00020079008901C216846FDF7D3
:1021F000B4FF1848184908602F204860002116488D
:10220000816044F61F61C160002101618161FFF7B7
:1022100061FE08B1FEF7A3F800200790089007A917
:102220000D48FFF74FFD08B1FEF799F860200090C8
:102230000020019002900490002269460648FFF7B2
:10224000CBFD08B1FEF78BF80348FFF77DFD09B021
:1022500000BD000000040040EC01002010B5002289
:102260000D490E4801F00BF808B1FEF778F80C495B
:102270000A4801F09DFA08B1FEF771F809490748CC
:1022800000F09DFC08B1FEF76AF8044801F05AFB23
:1022900008B1FEF764F810BD1000002034020020E1
:1022A000A00000208000002000BFFEE770472DE95D
:1022B000F0470546E2E12868B0F844A00AF00F06AE
:1022C000002E7ED10AF01000B0BB00BF296809883B
:1022D00048F60F7201EA020040F400412A681180BA
:1022E00000BF05F128042868B0F85010207801EBF1
:1022F000C000801C296801F5806131F81000C0F32E
:102300000900E061E16960690844606100212846D4
:10231000FEF7D1FA95F824000028CBD0A069002858
:10232000C8D195F8240040F080002968A1F84C003D
:10233000002085F82400A1E1FFE705F5B4742868C2
:10234000B0F8008008F4006030B32868B0F850108E
:10235000207801EBC000801D296801F5806131F80B
:102360001000C0F30900E061A18B8BB2E28805F593
:102370002C71286802F0D6FD00BF2968098840F654
:102380008F7201EA020040F080012A68118000BFCC
:102390002846FFF76AF871E108F40040002889D068
:1023A00000BF2968098840F68F7201EA020040F0F8
:1023B00080012A68118000BF2868B0F8501020788A
:1023C00000E069E001EBC000801D296801F5806133
:1023D00031F81000C0F30900E061E06990B1606974
:1023E00080B1B4F81CC01FFA8CF3E28861692868D8
:1023F00002F098FDE16960690844606100212846A7
:10240000FEF769FA00BF2A682968B1F850100A443B
:1024100002F20C41084600BF236953B9038848F211
:10242000FF3C03EA0C030380038843F4004303806A
:102430001EE023693E2B0DD800BF23695908237C79
:1024400003F0010303B1491C4FF6FF7303EA812334
:1024500003800DE000BF23695909237C03F01F03AB
:1024600003B9491E4FF4004343EA8123038000BFB0
:1024700000BF00BF00BF296809884BF68F7201EAD0
:10248000020080F4805080F4005040F4004141F09C
:1024900080012A681180F1E07100286830F811800D
:1024A00008F4004000287ED000BF7200296831F88F
:1024B000121040F68F7201EA020040F080017300B2
:1024C0002A6822F8131000BF06EB860105F5B470E8
:1024D00000EBC104207BB0B92868B0F85010207818
:1024E00001EBC000801D296801F5806131F8100002
:1024F000C0F30907002F5BD0E28861693B4628687A
:1025000002F010FD54E0E078022806D14246214650
:102510002846FEF763FA07464AE000BF00BF22786C
:102520005200296831F8121048F68F7201EA020051
:1025300040F4004141F0C00123785B002A6822F892
:10254000131000BF00BF21784900286830F811003F
:1025500000F48040A8B12868B0F85010207801EB52
:10256000C000801C296801F5806131F81000C0F3BB
:102570000907EFB1228961693B46286802F0D2FC65
:1025800016E02868B0F85010207801EBC000801DDC
:10259000296801F5806131F81000C0F309073FB1E7
:1025A0006289616900E017E03B46286802F0BAFCE6
:1025B000E0693844E061606938446061A06910B145
:1025C0002069B84204D921782846FEF784F903E04F
:1025D0002146286801F091FF08F08000A0B306EBC7
:1025E000860105F1280000EBC10400BF72002968D4
:1025F00031F8121048F60F7201EA020040F400416F
:1026000073002A6822F8131000BFE078022805D171
:10261000E07802282DD108F4807050BB2868B0F80B
:102620005010207801EBC000801C296801F5806102
:1026300031F81000C0F30909A069484505D9A0691F
:10264000A0EB0900A06102E018E00020A061A069F1
:1026500020B921782846FEF72EF90FE0606948443A
:102660006061E0694844E0612146286801F045FF67
:1026700004E0424621462846FEF75CFA2868B0F896
:10268000440000F4004000287FF415AEBDE8F08758
:102690007047000008B508490968C9084FF47A7204
:1026A000B1FBF2F14143009100BF00BF00994A1E07
:1026B00000920029F9D108BD0C000020704710B528
:1026C000FEF704F810BD00B593B0282109A8FDF766
:1026D00044FD142104A8FDF740FD00200090019066
:1026E000029003900120099000040A9000200B90B2
:1026F00001200D9002201090C1031191C10412918C
:1027000009A8FFF793F808B1FDF729FE0F20049000
:1027100002200590002006904FF480600790002072
:102720000890012104A8FEF771FF08B1FDF717FE1C
:1027300010200090800403906846FEF7CFFE08B199
:10274000FDF70DFE13B000BD7047000010B5026824
:10275000184B984208D0B0F1804F05D0164B9842E4
:1027600002D0164B984203D122F070024B681A43F4
:10277000104B984208D0B0F1804F05D00E4B9842D4
:1027800002D00E4B984203D122F44072CB681A4318
:1027900022F080034C6943EA040202608B68C36242
:1027A0000B688362034B984201D10B6903630123D9
:1027B000436110BD002C01400004004000080040AF
:1027C00030B501F01F05012404FA05F3046A9C43A7
:1027D0000462046A01F01F0502FA05F52C43046245
:1027E00030BD000030B5056A25F001050562026ABA
:1027F0004368846924F0700424F003040D682C43BA
:1028000022F002028D682A430D4DA84206D100BF76
:1028100022F00802CD682A4322F00402084DA842A3
:1028200007D123F4807323F400734D692B438D6922
:102830002B43436084614D684563026230BD0000F4
:10284000002C014030B5056A25F010050562026ACA
:102850004368846924F4E04424F440740D6844EA35
:10286000052422F020028D6842EA05120E4DA8428E
:1028700007D100BF22F08002CD6842EA051222F0A3
:102880004002094DA84209D123F4806323F4006378
:102890004D6943EA85038D6943EA8503436084619A
:1028A0004D688563026230BD002C014030B5056A79
:1028B00025F480750562026A4368C46924F07004D7
:1028C00024F003040D682C4322F400728D6842EA60
:1028D00005220F4DA84207D100BF22F40062CD6847
:1028E00042EA052222F48062094DA84209D123F46C
:1028F000805323F400534D6943EA05138D6943EA7D
:1029000005134360C4614D68C563026230BD0000B9
:10291000002C014030B5056A25F480550562036A34
:102920004468C26922F4E04222F440720D6842EA2F
:10293000052223F400538D6843EA0533064DA8426F
:1029400004D124F480444D6944EA85144460C26192
:102950004D680564036230BD002C01402DE9F04153
:1029600004460D46D4F8B862D4F8C072D4F8B80260
:1029700078B305EB850104F1140000EB8100806859
:1029800008B305EB850104F1140000EB810005EBB1
:102990008502816807F1280000EBC2000069B1FBE5
:1029A000F0F200FB121070B9002105EB850204F172
:1029B000140000EB8200816000231A46294620465D
:1029C00000F0CAFE02E00020C6F814020020BDE8B4
:1029D000F081FFE70220FAE770B504460E46D4F80E
:1029E000B8523146204600F05CFDC5F80C02D4F820
:1029F000B80248B1D5F80402D4F8BC12CA6805F58B
:102A000003719047002070BD0220FCE770B50446BA
:102A10000E4600258121204600F05DFC0021E16288
:102A20000121204600F057FC0021C4F86C118221DE
:102A3000204600F050FC00212164D4F8B80250B1C7
:102A4000D4F8BC1248688047D4F8B80201F02DF9D8
:102A50000020C4F8B802284670BD70B50546D5F808
:102A6000B842D5F8BC0278B194F80002FF280BD028
:102A700094F8012294F80002D5F8BC128B68214624
:102A80009847FF2084F80002002070BD01460A200C
:102A90000880014870470000940000200146432050
:102AA00008800148704700001C01002001464320B7
:102AB0000880014870470000D800002001464320EC
:102AC0000880014870470000600100202DE9F041B6
:102AD00004460F460026207C88B94FF4007302227A
:102AE0008121204600F044FD0121E1624B020222D7
:102AF000204600F03DFD0121C4F86C110FE0402399
:102B000002228121204600F033FD0121E1624023B1
:102B10000222204600F02CFD0121C4F86C1108238C
:102B200003228221204600F023FD012121644FF47D
:102B3000077001F0BBF8C4F8B802D4F8B80208B9BD
:102B400001261CE0D4F8B852D4F8BC1208688047BB
:102B50000020C5F81402C5F81802207C40B94FF4D3
:102B6000007301212046D5F8042200F019FD06E08B
:102B7000402301212046D5F8042200F011FD304603
:102B8000BDE8F08170B50446D4F8B852D4F8B80264
:102B900098B1207C40B94FF4007301212046D5F84C
:102BA000042200F0FDFC06E0402301212046D5F878
:102BB000042200F0F5FC002070BD0220FCE7024674
:102BC000022011B1C2F8BC12002070470246D2F8B0
:102BD000B832C3F804120020704710B50346D3F88A
:102BE000B842C4F80812C4F81022002010BD2DE924
:102BF000FC4105460C46D5F8B862002001900090D3
:102C00000027207800F0600040B320285FD1E088E2
:102C1000E0B1207800F0800060B1E2886078D5F8FB
:102C2000BC128B6831469847E2883146284600F04E
:102C3000E6F812E0607886F80002A07986F80102D2
:102C4000E2883146284600F0B9F806E06078D5F809
:102C5000BC1200228B68214698473EE0607820B184
:102C60000A2812D00B282AD11FE095F89C020328CD
:102C700005D102226946284600F0C1F804E0214649
:102C8000284600F08FF802271FE095F89C020328E1
:102C900005D1012201A9284600F0B1F804E021463F
:102CA000284600F07FF802270FE095F89C020328E1
:102CB00004D02146284600F075F8022705E0214699
:102CC000284600F06FF8022700BF00BF05E021464C
:102CD000284600F067F8022700BF00BF3846BDE86D
:102CE000FC8170B50546D5F8B842D5F8B802A8B150
:102CF000D4F8140280B90120C4F81402D4F81012D8
:102D00002963B4F8100283B281212846D4F808223E
:102D100000F022FD002070BD0120FCE70220FAE750
:102D200070B504460D46D4F8B402294642682046E0
:102D30009047002070BD70B504460D4694F89C0283
:102D4000012804D0022803D003280CD101E000BFE1
:102D500000BF6888012805D10020C4F8A4022046DD
:102D600000F05EF804E02946204600F01BF800BFA2
:102D700000BF70BD70B506460C4615462B46224670
:102D80000021304600F00CFC002070BD70B50646F6
:102D90000C4615462B4622460021304600F0DCFC4E
:102DA000002070BD70B504460D468021204600F01D
:102DB000A7FC0021204600F0A3FC70BD70B50446BE
:102DC0000E4615460320C4F894024FF4AE70055128
:102DD000001D05512B4632460021204600F0E0FB45
:102DE000002070BD10B504460520C4F894020023ED
:102DF0001A461946204600F0D3FB002010BD70B5DE
:102E000004460E4615460220C4F89402E561256288
:102E10002B4632460021204600F09EFC002070BD6B
:102E200010B504460420C4F8940200231A4619463B
:102E3000204600F091FC002010BD000070B5054652
:102E40000C462DB92246064906A000F0D9F904E047
:102E50002246034903A000F0D3F9014870BD0000E9
:102E6000F804002043444320436F6E666967000006
:102E70000246122008800148704700002C00002004
:102E800070B505460C462DB92246064906A000F04D
:102E9000B7F904E02246034903A000F0B1F9014864
:102EA00070BD0000F804002043444320496E74655F
:102EB00072666163650000000246042008800148D4
:102EC000704700004000002070B505460C462246C1
:102ED000024903A000F094F9004870BDF8040020F6
:102EE00053544D6963726F656C656374726F6E697C
:102EF0006373000070B505460C462DB9224606499D
:102F000006A000F07DF904E02246034903A000F08A
:102F100077F9014870BD0000F804002050414E5A76
:102F200045524B414D50464147454E20585856005A
:102F300070B505460C461A202080FDF711FA0148AD
:102F400070BD00004400002070B504460D46E888BE
:102F5000012804D029462046FFF724FF1EE094F8FC
:102F60009C02012804D0022803D0032810D109E0D4
:102F700000BF0020A060012204F108012046FFF7F5
:102F80003EFF0AE00122211D2046FFF738FF04E042
:102F900029462046FFF706FF00BF00BF70BDF8B509
:102FA00004460E460020009000270025708800127D
:102FB000082875D2DFE800F0C7040C20C7C7A5B504
:102FC000207CD4F8B0120A68694690470746C1E0F1
:102FD000207C40B9D4F8B402816A68468847074625
:102FE0000220787007E0D4F8B402C16A68468847C6
:102FF000074602207870ADE0B078062878D2DFE886
:1030000000F00316293C5063D4F8B002406838B190
:10301000207CD4F8B0124A6869469047074605E01C
:1030200031462046FFF7BEFE681CC5B267E0D4F803
:10303000B002806838B1207CD4F8B0128A68694642
:103040009047074605E031462046FFF7ABFE681C77
:10305000C5B254E0D4F8B002C06838B1207CD4F8CE
:10306000B012CA6869469047074605E031462046D7
:10307000FFF798FE681CC5B241E0D4F8B0020069C1
:1030800038B1207CD4F8B0120A69694690470746E7
:1030900005E031462046FFF785FE681CC5B22EE0EC
:1030A00051E0D4F8B002406938B1207CD4F8B012B5
:1030B0004A6969469047074605E031462046FFF7D2
:1030C00071FE681CC5B21AE0D4F8B002806940B144
:1030D000207CD4F8B0128A6969469047074606E01A
:1030E00006E031462046FFF75DFE681CC5B206E0EB
:1030F00031462046FFF756FE681CC5B200BF00BF30
:1031000028E0207C30B9D4F8B402416B6846884787
:10311000074605E031462046FFF744FE681CC5B26D
:1031200018E0207C40B9D4F8B402016B68468847A7
:1031300007460720787005E031462046FFF732FE4B
:10314000681CC5B206E031462046FFF72BFE681C1E
:10315000C5B200BF00BF05B1F8BDBDF8000088B121
:10316000F08878B1F088BDF80010884202DDBDF823
:10317000000000E0F0880090BDF8002039462046AD
:10318000FFF73DFEF08810B92046FFF749FE00BF6B
:10319000E2E70146002002E0421CD0B2491C0A7856
:1031A000002AF9D1704770B504460D4694F89C0288
:1031B000012804D0022803D003281AD101E000BF5F
:1031C00000BFE888022804D029462046FFF7EAFD20
:1031D00014E00120E060D4F8A40218B1E06840F0E7
:1031E0000200E060022204F10C012046FFF707FE16
:1031F00004E029462046FFF7D5FD00BF00BF70BDA3
:103200002DE9F04104460D4617460026FCB1204644
:10321000FFF7BFFF022101EB400038803A783046CB
:10322000711CCEB22A5403223046711CCEB22A54ED
:103230000AE014F8012B3046711CCEB22A54002249
:103240003046711CCEB22A5420780028F1D1BDE856
:10325000F0810146002031B1012906D0022906D0B3
:10326000032908D105E0002007E0022005E0012045
:1032700003E0022001E0022000BF00BF704770B5EC
:1032800004460D4616460CB9022070BDD4F8B402AF
:1032900010B10020C4F8B4020DB1C4F8B05201203E
:1032A00084F89C022670204600F004F90020ECE728
:1032B0002DE9F04104460D46002600272946D4F8A2
:1032C000C002FDF74DFB06463046FFF7C2FF07463A
:1032D0003846BDE8F0812DE9F04104460D46002650
:1032E00000272946D4F8C002FDF705FB0646304604
:1032F000FFF7AFFF07463846BDE8F0812DE9F04102
:1033000004460E461746002E64D104F11405D4F885
:103310009402022848D1D5E90301884210D9D5E9A1
:103320000301401AE860A88982B239462046FFF7B7
:103330002DFD00231A461946204600F031F93EE0E3
:103340002969A868B0FBF1F201FB1200B8B929693C
:10335000A868884213D3A868D4F8981288420ED27D
:10336000002211462046FFF711FD0020C4F8980204
:1033700000231A461946204600F012F91FE0D4F83F
:10338000B402C06840B194F89C02032804D1D4F878
:10339000B402C168204688478021204600F0B0F979
:1033A0002046FFF71FFD0AE0D4F89402042802D05B
:1033B000D4F8940218B98021204600F0A1F994F8BD
:1033C000A002012818D1204600F0FAF9002084F864
:1033D000A00211E0D4F8B402406950B194F89C0204
:1033E000032806D1D4F8B4023146426920469047FA
:1033F00002E00220BDE8F0810020FBE72DE9F0416A
:1034000004460E461746BEBB04F5AA75D4F89402CE
:10341000032825D1D5E90301884210D9D5E9030154
:10342000401AE860D5E90301884201D2E86800E06B
:10343000286982B239462046FFF79CFC2FE0D4F879
:10344000B402006940B194F89C02032804D1D4F876
:10345000B4020169204688472046FFF7E1FC1EE0E0
:10346000D4F8940205281AD10020C4F8940200214F
:10347000204600F045F912E0FFE7D4F8B402806975
:1034800050B194F89C02032806D1D4F8B402314616
:1034900082692046904702E00220BDE8F0810020CA
:1034A000FBE770B504460D462946D4F8C002FDF787
:1034B000FCFC70BD10B504461D48C0F8E842C4F8D5
:1034C000C0021C481A4908600820486002211848B8
:1034D000816000218161C1610162FDF7BDFE08B11B
:1034E000FCF73DFF04F530741823002211462068D4
:1034F000FDF7BEF95823002280212068FDF7B8F9B6
:10350000C023002281212068FDF7B2F94FF48873AF
:10351000002201212068FDF7ABF92068A4F5307482
:103520004FF4807300228221FDF7A2F9002010BD24
:10353000C80E0020005C004010B50246D2F8C03230
:1035400001F08000802809D101F07F0000EB8004A9
:1035500003F1280000EBC400807810BD01F07F006B
:1035600000EB800403F5B47000EBC4008078F4E74E
:103570002DE9F04704460F4615461E464FF0000859
:10358000C1462B4632463946D4F8C002FDF798FCB6
:1035900080464046FFF75DFE81464846BDE8F0871D
:1035A0002DE9F04704460D4616461F464FF0000829
:1035B000C1463B4632462946D4F8C002FDF7C6FC58
:1035C00080464046FFF745FE81464846BDE8F08705
:1035D00010B504464023002211462046FFF7C8FFDD
:1035E00001214FF4AC70015140214FF4B2700151F0
:1035F0004023002280212046FFF7BAFF0121A1616C
:1036000040216162012084F89C020020C4F89402E9
:103610006060C4F8A402D4F8B80228B12179D4F8C3
:10362000B402426820469047002010BD014691F840
:103630009C02042803D191F89D0281F89C0200208D
:10364000704710B5044694F89C02032808D1D4F8BA
:10365000B402C06920B1D4F8B402C16920468847D9
:10366000002010BD02461174002070472DE9F04182
:1036700004460D46002600272946D4F8C002FDF76F
:10368000D9FE06463046FFF7E4FD07463846BDE85A
:10369000F08170B504460D46294604F52A7000F005
:1036A00073F80120C4F8940240F2AE20005BC4F825
:1036B000980294F8A80200F01F0020B1012808D059
:1036C000022812D10BE004F52A71204600F041F9DE
:1036D00013E004F52A71204600F0A8FA0DE004F585
:1036E0002A71204600F086F907E094F8A80200F05D
:1036F0008001204600F004F800BF00BF002070BD2C
:103700002DE9F04104460D46002600272946D4F84D
:10371000C002FDF741FC06463046FFF79AFD07461A
:103720003846BDE8F08170B5044600250026D4F87F
:10373000C002FDF7A3FE05462846FFF78AFD0646B0
:10374000304670BD014691F89C0281F89D0204202C
:1037500081F89C02002070472DE9F04704460D4691
:1037600016461F464FF00008C1463B4632462946E2
:10377000D4F8C002FDF754FC80464046FFF769FDCF
:1037800081464846BDE8F0870A7802704A78427060
:103790008B78CA7803EB022242800B794A7903EBDB
:1037A000022282808B79CA7903EB0222C2807047A1
:1037B0000246002011B1C2F8B41200E002207047A6
:1037C00001460020704770B504460D46A88810BB1E
:1037D000E88800BB688880281DD2A87800F07F06A2
:1037E00094F89C02032804D129462046FFF7DAFA10
:1037F00015E084F89E6231462046FFF737FF2046E9
:10380000FFF70EFB1EB1022084F89C0207E00120A6
:1038100084F89C0203E029462046FFF7C3FA70BDF6
:1038200070B504460D460226D4F8B40238B1D4F877
:10383000B402294602682046904700B90026304667
:1038400070BD000070B504460D46A8783649087072
:1038500008460078012804DD29462046FFF7A2FA31
:1038600060E094F89C02022802D003284FD11CE0AB
:103870002D480078A8B12C4800786060032084F8B7
:103880009C02294801782046FFF7CAFF022804D18C
:1038900029462046FFF786FA70BD2046FFF7C0FA9A
:1038A00002E02046FFF7BCFA3BE01F48007870B901
:1038B000022084F89C021C48007860601A48017855
:1038C0002046FFF72DFA2046FFF7AAFA1EE0164918
:1038D00009786068884216D021792046FFF720FADF
:1038E000114800786060104801782046FFF798FF83
:1038F000022804D129462046FFF754FACCE7204697
:10390000FFF78EFA02E02046FFF78AFA09E029461F
:103910002046FFF747FA044801782046FFF700FAEF
:1039200000BF00BF00BFB7E79000002070B505469C
:103930000C466088012804D1C5F8A4022846FFF788
:103940006FFA70BD10B504462046FFF7ECFE00206C
:1039500010BD70B505460C460026207800F06000CA
:1039600060B1202802D040283CD100E000BFD5F84B
:10397000B402214682682846904738E060780A28D9
:1039800029D2DFE800F01923281E280A0528140F81
:1039900021462846FFF703FB22E021462846FFF791
:1039A00012FF1DE021462846FFF74CFF18E0214694
:1039B0002846FFF7C9FA13E021462846FFF7F3FB34
:1039C0000EE021462846FFF7B1FF09E021462846D0
:1039D000FFF7B1F904E021462846FFF7E3F900BFFD
:1039E00000BF04E021462846FFF7DCF900BF00BF16
:1039F000304670BD2DE9F04105460E464FF00008F7
:103A00003479307800F0600060B1202802D040287E
:103A100071D100E000BFD5F8B40231468268284673
:103A2000904700E1307800F06000202809D1D5F8F7
:103A3000B402314682682846904780464046BDE839
:103A4000F081707800285ED001282FD0032876D12D
:103A500095F89C02022802D0032820D110E054B12E
:103A6000802C08D021462846FFF74AFE80212846B0
:103A7000FFF746FE03E031462846FFF793F913E0CF
:103A8000708840B93CB1802C05D0F08818B9214627
:103A90002846FFF735FE2846FFF7C2F904E0314615
:103AA0002846FFF77FF900BF00BFB5E095F89C02FC
:103AB000022802D003281FD110E054B1802C08D076
:103AC00021462846FFF71CFE80212846FFF718FEF6
:103AD00003E031462846FFF765F912E0708848B9DF
:103AE00004F07F0018B121462846FFF7E1FB284685
:103AF000FFF796F905E091E031462846FFF752F9C5
:103B000000BF00BF88E095F89C02022802D003287D
:103B100076D126E034B1802C04D031462846FFF718
:103B200041F972E004F08000802809D104F07F00A0
:103B300000EB800105F1140000EB810008E066E075
:103B400004F07F0000EB800105F5AA7000EB810016
:103B5000074600203860022239462846FFF74FF911
:103B600053E004F0800080280ED104F00F0000EB39
:103B7000800105F1140000EB8100406898B93146DE
:103B80002846FFF70FF940E004F00F0000EB80013A
:103B900005F5AA7000EB8100406820B9314628463F
:103BA000FFF700F931E004F08000802808D104F02C
:103BB0007F0000EB800105F1140000EB810007E0BD
:103BC00004F07F0000EB800105F5AA7000EB810096
:103BD00007460CB1802C02D10020386009E0214654
:103BE0002846FFF7A9FC10B10120386001E0002051
:103BF0003860022239462846FFF701F905E0FFE761
:103C000031462846FFF7CEF800BF00BF04E031463A
:103C10002846FFF7C7F800BF00BF04E0314628463A
:103C2000FFF7C0F800BF00BF404608E770B5054683
:103C30000C460026207800F0600030B1202802D029
:103C400040282AD100E000BF00BF95F89C0201285F
:103C500004D0022803D0032818D101E000BF00BF20
:103C6000207901280DDCD5F8B40221468268284667
:103C700090470646E08840B93EB92846FFF7D0F89D
:103C800003E021462846FFF78DF804E02146284648
:103C9000FFF788F800BF00BF04E021462846FFF781
:103CA00081F800BF00BF002070BD70470146014889
:103CB00070470000B4110020F0B5024600260878D5
:103CC000400032F8100048F68F1400EA0403C87868
:103CD00030B101280CD0022805D003280BD104E014
:103CE00043F4007309E000BF07E043F4C06304E05D
:103CF00043F4806301E0012600BF00BF43F40040AD
:103D000040F080000C78640022F8140000BF0C78AA
:103D1000640032F8144048F68F752C400D7844EA60
:103D2000050040F4004444F080040D786D0022F852
:103D3000154000BF087B00287ED14878002852D06B
:103D400000BF1046B2F8505028440D7800F5806747
:103D500007EB0514CD886D106D00258000BF00BFF6
:103D60000C78640032F8140000F040048CB100BFFD
:103D70000D786D0032F8155048F68F7705EA070484
:103D800044F4004545F0C0050F787F0022F8175035
:103D900000BF00BFC878012813D000BF0C786400B2
:103DA00032F8144048F6BF7504EA050080F02000A0
:103DB00040F4004444F080040D786D0022F8154072
:103DC0009EE100BF0C78640032F8144048F6BF75DD
:103DD00004EA050040F4004444F080040D786D00CE
:103DE00022F815408CE100BF1046B2F8505028442C
:103DF0000D78042707EBC50500F5806707EB450440
:103E0000CD886D106D00258000BF00BF1546B2F84B
:103E1000504025440C78062707EBC40405F580675D
:103E200007EB4404204600BF0F6967B9078848F2D2
:103E3000FF3C07EA0C0700E057E00780078847F4DB
:103E4000004707801EE00F693E2F0DD800BF0F69A5
:103E50007C080F7C07F0010707B1641C4FF6FF7761
:103E600007EA842707800DE000BF0F697C090F7CFB
:103E700007F01F0707B9641E4FF4004747EA84277D
:103E8000078000BF00BF00BF00BF0C78640032F89D
:103E9000140000F480448CB100BF0D786D0032F83E
:103EA000155048F68F7705EA070444F4004545F4B9
:103EB00081450F787F0022F8175000BF00BF00BF78
:103EC0000C78640032F814404BF68F7504EA050054
:103ED00080F4805080F4005040F4004444F08004AA
:103EE0000D786D0022F815400AE100BF0C786400DF
:103EF00032F8144048F68F7504EA050040F4004497
:103F000044F4C0740D786D0022F8154000BF00BF66
:103F100000BF00BF1046B2F8505028440D7800F59D
:103F2000806707EB05140D896D106D00258000BFBB
:103F300000BF00BF00BF1046B2F8505028440D78B3
:103F4000042707EBC50500F5806707EB45044D899D
:103F50006D106D00258000BF00BF00BF48780028AD
:103F60005DD100BF0C78640032F8140000F4804486
:103F70008CB100BF0D786D0032F8155048F68F7780
:103F800005EA070444F4004545F481450F787F00B5
:103F900022F8175000BF00BF00BF0C78640032F851
:103FA000140000F040048CB100BF0D786D0032F8B1
:103FB000155048F68F7705EA070444F4004545F0AC
:103FC000C0050F787F0022F8175000BF00BF00BF68
:103FD0000C78640032F814404BF68F7504EA050043
:103FE00080F4805080F4005040F4004444F0800499
:103FF0000D786D0022F8154000BF00BF0C786400FA
:1040000032F8144048F6BF7504EA050040F4004455
:1040100044F080040D786D0022F8154070E000BF78
:104020000C78640032F8140000F480448CB100BFB6
:104030000D786D0032F8155048F68F7705EA0704C1
:1040400044F4004545F481450F787F0022F817506D
:1040500000BF00BF00BF0C78640032F8140000F00D
:1040600040048CB100BF0D786D0032F8155048F651
:104070008F7705EA070444F4004545F0C0050F7842
:104080007F0022F8175000BF00BFC878012813D066
:1040900000BF0C78640032F8144048F6BF7504EA9B
:1040A000050080F0200040F4004444F080040D78C6
:1040B0006D0022F8154011E000BF0C78640032F862
:1040C000144048F6BF7504EA050040F4004444F08B
:1040D00080040D786D0022F8154000BF00BF0C78F9
:1040E000640032F814404BF68F7504EA050040F482
:1040F000004444F080040D786D0022F8154000BFA4
:104100003046F0BD10B50446002010BD30B5024663
:10411000087B00285BD1487860B300BF0B785B0058
:1041200032F8130000F040038BB100BF0C7864003C
:1041300032F8144048F68F7504EA050343F400444E
:1041400044F0C0040D786D0022F8154000BF00BF98
:1041500000BF0B785B0032F8133048F6BF7403EAF7
:10416000040040F4004343F080030C78640022F81C
:10417000143007E100BF0B785B0032F8130000F445
:1041800080438BB100BF0C78640032F8144048F6CD
:104190008F7504EA050343F4004444F481440D7828
:1041A0006D0022F8154000BF00BF00BF0B785B0018
:1041B00032F813304BF68F7403EA040040F40043E6
:1041C00043F080030C78640022F81430DAE0487879
:1041D00000286BD100BF0B785B0032F8130000F4AD
:1041E00080438BB100BF0C78640032F8144048F66D
:1041F0008F7504EA050343F4004444F481440D78C8
:104200006D0022F8154000BF00BF00BF0B785B00B7
:1042100032F8130000F040038BB100BF0C7864004B
:1042200032F8144048F68F7504EA050343F400445D
:1042300044F0C0040D786D0022F8154000BF00BFA7
:1042400000BF0B785B0032F8133048F68F7403EA36
:10425000040040F4004343F0C0030C78640022F8EB
:10426000143000BF00BF0B785B0032F813304BF600
:104270008F7403EA040040F4004343F080030C7899
:10428000640022F8143000BF00BF0B785B0032F8E6
:10429000133048F6BF7403EA040040F4004343F0CF
:1042A00080030C78640022F814306BE000BF0B78B8
:1042B0005B0032F8130000F480438BB100BF0C7830
:1042C000640032F8144048F68F7504EA050343F49D
:1042D000004444F481440D786D0022F8154000BF7D
:1042E00000BF00BF0B785B0032F8130000F0400302
:1042F0008BB100BF0C78640032F8144048F68F751B
:1043000004EA050343F4004444F0C0040D786D0052
:1043100022F8154000BF00BF00BF0B785B0032F8E9
:10432000133048F68F7403EA040040F4004343F46A
:1043300081430C78640022F8143000BF00BF0B7872
:104340005B0032F8133048F6BF7403EA040040F40F
:10435000004343F080030C78640022F8143000BF5F
:1043600000BF0B785B0032F813304BF68F7403EA12
:10437000040040F4004343F080030C78640022F80A
:10438000143000BF002030BD0146002070470146B8
:104390000020704710B50446012024F8400F00208B
:1043A0002080A0802082403C10BD01464FF43F4257
:1043B000B1F840009043A1F8400000207047024649
:1043C0000020704730B50246087B002865D1487848
:1043D00088B300BF0B785B0032F8130000F0400395
:1043E0008BB100BF0C78640032F8144048F68F752A
:1043F00004EA050343F4004444F0C0040D786D0062
:1044000022F8154000BF00BFC878012845D000BF82
:104410000B785B0032F8133048F6BF7403EA0400EF
:1044200080F0200040F4004343F080030C786400E7
:1044300022F8143031E0FFE700BF0B785B0032F860
:10444000130000F480438BB100BF0C78640032F895
:10445000144048F68F7504EA050343F4004444F41D
:1044600081440D786D0022F8154000BF00BF00BFE9
:104470000B785B0032F813304BF68F7403EA0400BC
:1044800080F4805080F4005040F4004343F08003F7
:104490000C78640022F8143000BF002030BD10B545
:1044A0000246487898B100BF0B785B0032F81330B1
:1044B00048F6BF7403EA040080F0100040F40043A3
:1044C00043F080030C78640022F8143013E000BF3E
:1044D0000B785B0032F813304BF68F7403EA04005C
:1044E00080F4805040F4004343F080030C78640073
:1044F00022F8143000BF002010BD2DE9F047064619
:104500000C466078012876D12169A069884201D9DA
:10451000256900E0A569207BA0B9ABB2E2883046EE
:10452000616900F02EFD00BF3046B6F850201044FF
:104530002278022303EBC20200F5806303EB420101
:104540000D80BBE2E07802287DD12169206A884293
:104550007AD900BF2178490036F8111048F68F72D9
:1045600001EA020040F4004141F4C0712278520097
:1045700026F8121000BF206A401B206220784000FD
:1045800036F8100000F0400000287DD000BF334610
:10459000607888BB00BF3246B6F850100A442178D4
:1045A0004FF0060909EBC10102F5806909EB4101F1
:1045B000084600BF75B9B0F8009048F2FF3A09EA22
:1045C0000A09A0F80090B0F8009049F40049A0F85A
:1045D000009021E03E2D10D800BF690805F00109C8
:1045E000B9F1000F00D0491C4FF6FF7909EA812983
:1045F000A0F8009010E077E210E000BF690905F034
:104600001F09B9F1000F00D1491E4FF4004949EAD2
:104610008129A0F8009000BF00BF0FE0607801285A
:104620000CD1B6F8500003442078062101EBC000FD
:1046300003F5806101EB400CACF8005000BF6789C6
:10464000ABB23A4601E057E12CE13046616900F037
:1046500098FC6069284460612169206A884203D916
:10466000206A401B206202E0256A0020206200BF11
:104670006078C0BB00BF3246B6F850100A442178BB
:10468000022303EBC10100E049E002F5806303EB84
:104690004101084600BF55B9038848F2FF3C03EAD0
:1046A0000C030380038843F40043038019E03E2D8C
:1046B0000BD800BF690805F0010303B1491C4FF690
:1046C000FF7303EA812303800BE000BF690905F053
:1046D0001F0303B9491E4FF4004343EA81230380BB
:1046E00000BF00BF12E0FFE7607801280ED100BFD5
:1046F0003046B6F8502010442278022303EBC20261
:1047000000F5806303EB42010D8000BF00BF2789E5
:10471000ABB23A463046616900F033FCCEE100BFEF
:104720006078B0BB00BF3246B6F850100A4421781A
:10473000022303EBC10102F5806303EB410108464C
:1047400000BF55B9038848F2FF3C03EA0C0303801D
:10475000038843F40043038019E03E2D0BD800BFCB
:10476000690805F0010303B1491C4FF6FF7303EA22
:10477000812303800BE000BF690905F01F0303B923
:10478000491E4FF4004343EA8123038000BF00BF6A
:1047900012E0FFE7607801280ED100BF3046B6F87E
:1047A000502010442278022303EBC20200F58063FC
:1047B00003EB42010D8000BF00BF2789ABB23A4630
:1047C0003046616900F0DDFB606928446061216961
:1047D000206A884203D9206A401B206202E0256AD1
:1047E0000020206200BF3346607880BB00BF3246A5
:1047F000B6F850100A4421784FF0060909EBC101C0
:1048000002F5806909EB4101084600BF75B9B0F8AF
:10481000009048F2FF3A09EA0A09A0F80090B0F8BF
:10482000009049F40049A0F8009020E03E2D0FD8F8
:1048300000BF690805F00109B9F1000F00D0491C5B
:104840004FF6FF7909EA8129A0F800900FE010E007
:1048500000BF690905F01F09B9F1000F00D1491E19
:104860004FF4004949EA8129A0F8009000BF00BF39
:104870000FE0607801280CD1B6F85000034420788E
:10488000062101EBC00003F5806101EB400CACF8A0
:10489000005000BF6789ABB23A463046616900F00C
:1048A00070FB0BE1256A00BF2178490036F8111032
:1048B00048F68F6201EA020040F4004141F08001B5
:1048C0002278520026F8121000BF00BF3046B6F81A
:1048D000502010442278022303EBC20200F58063CB
:1048E00003EB42010D8000BF2789ABB23A46304648
:1048F000616900F046FBE1E02078400036F81000E6
:1049000000F04000A0B300BF3346607888BB00BF12
:104910003246B6F850100A4421784FF0060909EBE8
:10492000C10102F5806909EB4101084600BF75B974
:10493000B0F8009048F2FF3A09EA0A09A0F800909E
:10494000B0F8009049F40049A0F8009021E03E2D15
:1049500010D800BF690805F00109B9F1000F00D0B7
:10496000491C4FF6FF7909EA8129A0F8009010E070
:1049700024E010E000BF690905F01F09B9F1000F3C
:1049800000D1491E4FF4004949EA8129A0F800905E
:1049900000BF00BF0FE0607801280CD1B6F85000CE
:1049A00003442078062101EBC00003F5806101EB90
:1049B000400CACF8005000BF67894EE000BF607843
:1049C000B0BB00BF3246B6F850100A44217802232B
:1049D00003EBC10102F5806303EB4101084600BF10
:1049E00055B9038848F2FF3C03EA0C0303800388AF
:1049F00043F40043038019E03E2D0BD800BF690843
:104A000005F0010303B1491C4FF6FF7303EA81234C
:104A100003800BE000BF690905F01F0303B9491EBD
:104A20004FF4004343EA8123038000BF00BF12E03C
:104A3000FFE7607801280ED100BF3046B6F850205D
:104A400010442278022303EBC20200F5806303EBDB
:104A500042010D8000BF00BF2789ABB23A46304605
:104A6000616900F08EFA00BF607888B900BF2178D4
:104A7000490036F8111048F68F7201EA020040F43E
:104A8000004141F0C0012278520026F8121014E0D3
:104A90006078012811D100BF2178490036F8111043
:104AA00048F68F7201EA020040F4004141F481416E
:104AB0002278520026F8121000BF00BF00BF2178F4
:104AC000490036F8111048F6BF7201EA020080F082
:104AD000100080F0200040F4004141F08001227875
:104AE000520026F8121005E2207BA0BB2169A069C4
:104AF000884204D92569A069401BA06102E0A5692C
:104B00000020A06100BF3246B6F850100A44217858
:104B1000062303EBC10102F5806303EB4101084664
:104B200000BF55B9038848F2FF3C03EA0C03038039
:104B3000038843F4004303801AE03E2D0CD800BFE5
:104B4000690805F0010303B1491C4FF6FF7303EA3E
:104B5000812303800CE00DE000BF690905F01F030D
:104B600003B9491E4FF4004343EA8123038000BF89
:104B700000BFA9E1E07802287DD100BF00BF6078C6
:104B8000E0BB00BF3246B6F850100A442178022339
:104B900003EBC10102F5806303EB4101084600BF4E
:104BA000236953B9038848F2FF3C03EA0C030380EE
:104BB000038843F4004303801EE023693E2B0DD895
:104BC00000BF23695908237C03F0010303B1491C8A
:104BD0004FF6FF7303EA812303800DE000BF2369D2
:104BE0005909237C03F01F0303B9491E4FF4004306
:104BF00043EA8123038000BF00BF13E0FFE7607832
:104C000001280FD100BF3046B6F85020104422785A
:104C1000022303EBC20200F5806303EB4201228A08
:104C20000A8000BF00BF00BF33466078E8BB00BF0A
:104C30003246B6F850100A4421784FF0060909EBC5
:104C4000C10102F5806909EB4101084600BFD4F8B3
:104C50001090B9F1000F0FD1B0F8009048F2FF3A70
:104C600009EA0A09A0F80090B0F8009049F4004958
:104C7000A0F800902EE06BE0D4F81090B9F13E0F50
:104C800014D800BFD4F810904FEA590194F810904E
:104C900009F00109B9F1000F00D0491C4FF6FF7966
:104CA00009EA8129A0F8009014E015E000BFD4F8CB
:104CB00010904FEA591194F8109009F01F09B9F1BA
:104CC000000F00D1491E4FF4004949EA8129A0F89C
:104CD000009000BF00BF10E0607801280DD1B6F849
:104CE000500003442078062101EBC00003F58061E9
:104CF00001EB400C208AACF8000000BF00BFE06967
:104D0000002824D02078400036F8108008F4804035
:104D100010B108F0400038B908F48040002816D1DE
:104D200008F04000002812D100BF00BF21784900E0
:104D300036F8111048F68F7201EA020040F4004183
:104D400041F0C0012278520026F8121000BFBBE0EB
:104D5000E07801287CD12169A069884204D92569BD
:104D6000A069401BA06102E0A5690020A06100BF0E
:104D700000BF6078B0BB00BF3246B6F850100A449E
:104D80002178022303EBC10102F5806303EB4101AB
:104D9000084600BF55B9038848F2FF3C03EA0C03FC
:104DA0000380038843F40043038019E03E2D0BD8B1
:104DB00000BF690805F0010303B1491C4FF6FF73FA
:104DC00003EA812303800BE000BF690905F01F039C
:104DD00003B9491E4FF4004343EA8123038000BF17
:104DE00000BF12E0FFE7607801280ED100BF304617
:104DF000B6F8502010442278022303EBC20200F5DB
:104E0000806303EB42010D8000BF00BF00BF33464B
:104E1000607890BB00BF3246B6F850100A44217843
:104E20004FF0060909EBC10102F5806909EB410168
:104E3000084600BF85B9B0F8009048F2FF3A09EA89
:104E40000A09A0F80090B0F8009049F4004900E089
:104E500037E0A0F8009020E03E2D0FD800BF690891
:104E600005F00109B9F1000F00D0491C4FF6FF7998
:104E700009EA8129A0F800900FE010E000BF69095D
:104E800005F01F09B9F1000F00D1491E4FF4004988
:104E900049EA8129A0F8009000BF00BF0FE06078C8
:104EA00001280CD1B6F8500003442078062101EB0C
:104EB000C00003F5806101EB400CACF8005000BF6E
:104EC00002E00120BDE8F08700BF2178490036F8F4
:104ED00011104BF68F7201EA020080F4805080F4CA
:104EE000005040F4004141F080012278520026F841
:104EF000121000BF0020E5E701460020A1F84400A1
:104F00004FF43F42A1F840207047000010B502481E
:104F1000FCF7B1F810BD0000C80E00200146B1F842
:104F2000440070472DE9F04304460E4615464FEA0B
:104F3000530CA046304608F5806909EB45026746E8
:104F40000AE01188921C0170401C4FEA112980F878
:104F50000090401C921C7F1E002FF2D103F001092B
:104F6000B9F1000F01D011880170BDE8F08302464D
:104F700000207047024611B98020A2F84C000020A2
:104F800070472DE9F04704460D461E4606F1010A1A
:104F90004FEA5A08A146284609F5806A0AEB4203FF
:104FA00047460BE090F800C0401C90F800A04CEA87
:104FB0000A2119809B1C9B1C401C7F1E002FF1D1D5
:104FC000BDE8F08700BFFEE702480068C0F302209A
:104FD000704700000CED00E010B5002804DB0A0764
:104FE000130E054A135406E00A07140E034A00F094
:104FF0000F031B1FD45410BD00E400E018ED00E0C7
:1050000002E008C8121F08C1002AFAD17047704791
:10501000002001E001C1121F002AFBD170470000EF
:10502000FBF760FBFDF74FFBFDF73EF8FDF784F85B
:10503000FDF7D6F8FDF712F900210A48FCF7A8FFA2
:1050400004210848FCF7A4FF08210648FCF7A0FF4C
:105050000C210448FCF79CFF00210348FCF798FF53
:1050600000BFFEE7A4010020EC01002000000000CA
:105070000000000001020304060708090000000008
:1050800001020304A450000800000020A401000055
:105090009401000878510008A40100203416000093
:1050A0001050000841321042011324F413712E1BDA
:1050B00008B9041AC9041AF50413312F1B083D0856
:1050C0001A8104131201140202021640830440578D
:1050D0001D0201020335071A040309041A032234CE
:1050E0001B4038041A3C041A4004133404190761A5
:1050F00029741339021B08330413EF011B085D08E0
:1051000041130A0632022A402013CD2A1B080D043F
:105110004BEF2B1C1A5B0C135D291B08D904C11A19
:10512000AD181A9D041ABD041A8D041C090243A36C
:10513000111DC0320904691A020B1305241610014F
:1051400005240110090104240202052406170107A1
:10515000058203081C100904D9320A1D0705010243
:105160007B2C070581071109374419E2294429E9F5
:085170002B0907440A3B04442B
:04000005080000ED02
:00000001FF
